{
  "contractName": "Store",
  "abi": [
    {
      "constant": true,
      "inputs": [
        {
          "name": "",
          "type": "uint256"
        }
      ],
      "name": "storeItems",
      "outputs": [
        {
          "name": "name",
          "type": "string"
        },
        {
          "name": "description",
          "type": "string"
        },
        {
          "name": "stock",
          "type": "uint256"
        },
        {
          "name": "imagePath",
          "type": "string"
        }
      ],
      "payable": false,
      "stateMutability": "view",
      "type": "function"
    },
    {
      "constant": true,
      "inputs": [
        {
          "name": "",
          "type": "uint256"
        }
      ],
      "name": "itemId",
      "outputs": [
        {
          "name": "",
          "type": "uint256"
        }
      ],
      "payable": false,
      "stateMutability": "view",
      "type": "function"
    },
    {
      "inputs": [],
      "payable": false,
      "stateMutability": "nonpayable",
      "type": "constructor"
    },
    {
      "anonymous": false,
      "inputs": [
        {
          "indexed": false,
          "name": "id",
          "type": "uint256"
        },
        {
          "indexed": false,
          "name": "name",
          "type": "string"
        },
        {
          "indexed": false,
          "name": "desc",
          "type": "string"
        },
        {
          "indexed": false,
          "name": "stock",
          "type": "uint256"
        },
        {
          "indexed": false,
          "name": "imagePath",
          "type": "string"
        }
      ],
      "name": "ItemAdded",
      "type": "event"
    },
    {
      "anonymous": false,
      "inputs": [
        {
          "indexed": false,
          "name": "id",
          "type": "uint256"
        },
        {
          "indexed": false,
          "name": "newName",
          "type": "string"
        }
      ],
      "name": "NameChanged",
      "type": "event"
    },
    {
      "anonymous": false,
      "inputs": [
        {
          "indexed": false,
          "name": "id",
          "type": "uint256"
        },
        {
          "indexed": false,
          "name": "description",
          "type": "string"
        }
      ],
      "name": "DescriptionChanged",
      "type": "event"
    },
    {
      "anonymous": false,
      "inputs": [
        {
          "indexed": false,
          "name": "id",
          "type": "uint256"
        },
        {
          "indexed": false,
          "name": "stock",
          "type": "uint256"
        }
      ],
      "name": "StockChanged",
      "type": "event"
    },
    {
      "anonymous": false,
      "inputs": [
        {
          "indexed": false,
          "name": "id",
          "type": "uint256"
        },
        {
          "indexed": false,
          "name": "imagePath",
          "type": "string"
        }
      ],
      "name": "ImagePathChanged",
      "type": "event"
    },
    {
      "constant": false,
      "inputs": [
        {
          "name": "_id",
          "type": "uint256"
        },
        {
          "name": "_name",
          "type": "string"
        },
        {
          "name": "_desc",
          "type": "string"
        },
        {
          "name": "_stock",
          "type": "uint256"
        },
        {
          "name": "_imagePath",
          "type": "string"
        }
      ],
      "name": "addItem",
      "outputs": [
        {
          "name": "success",
          "type": "bool"
        }
      ],
      "payable": false,
      "stateMutability": "nonpayable",
      "type": "function"
    },
    {
      "constant": false,
      "inputs": [
        {
          "name": "_id",
          "type": "uint256"
        },
        {
          "name": "_desc",
          "type": "string"
        }
      ],
      "name": "changeDesc",
      "outputs": [
        {
          "name": "success",
          "type": "bool"
        }
      ],
      "payable": false,
      "stateMutability": "nonpayable",
      "type": "function"
    },
    {
      "constant": false,
      "inputs": [
        {
          "name": "_id",
          "type": "uint256"
        },
        {
          "name": "_stock",
          "type": "uint256"
        }
      ],
      "name": "changeName",
      "outputs": [
        {
          "name": "success",
          "type": "bool"
        }
      ],
      "payable": false,
      "stateMutability": "nonpayable",
      "type": "function"
    },
    {
      "constant": false,
      "inputs": [
        {
          "name": "_id",
          "type": "uint256"
        },
        {
          "name": "_name",
          "type": "string"
        }
      ],
      "name": "changeName",
      "outputs": [
        {
          "name": "success",
          "type": "bool"
        }
      ],
      "payable": false,
      "stateMutability": "nonpayable",
      "type": "function"
    },
    {
      "constant": false,
      "inputs": [
        {
          "name": "_id",
          "type": "uint256"
        },
        {
          "name": "_imagePath",
          "type": "string"
        }
      ],
      "name": "changeImagePath",
      "outputs": [
        {
          "name": "success",
          "type": "bool"
        }
      ],
      "payable": false,
      "stateMutability": "nonpayable",
      "type": "function"
    }
  ],
  "bytecode": "0x6060604052341561000f57600080fd5b33600260006101000a81548173ffffffffffffffffffffffffffffffffffffffff021916908373ffffffffffffffffffffffffffffffffffffffff160217905550610f398061005f6000396000f300606060405260043610610083576000357c0100000000000000000000000000000000000000000000000000000000900463ffffffff16806343f2cdb2146100885780634965539e1461025a578063766c51de146102d85780638a779afa146103e5578063b6897c721461041c578063c39cbef114610460578063e05052ac146104de575b600080fd5b341561009357600080fd5b6100a9600480803590602001909190505061055c565b604051808060200180602001858152602001806020018481038452888181546001816001161561010002031660029004815260200191508054600181600116156101000203166002900480156101405780601f1061011557610100808354040283529160200191610140565b820191906000526020600020905b81548152906001019060200180831161012357829003601f168201915b50508481038352878181546001816001161561010002031660029004815260200191508054600181600116156101000203166002900480156101c35780601f10610198576101008083540402835291602001916101c3565b820191906000526020600020905b8154815290600101906020018083116101a657829003601f168201915b50508481038252858181546001816001161561010002031660029004815260200191508054600181600116156101000203166002900480156102465780601f1061021b57610100808354040283529160200191610246565b820191906000526020600020905b81548152906001019060200180831161022957829003601f168201915b505097505050505050505060405180910390f35b341561026557600080fd5b6102be600480803590602001909190803590602001908201803590602001908080601f01602080910402602001604051908101604052809392919081815260200183838082843782019150505050505091905050610589565b604051808215151515815260200191505060405180910390f35b34156102e357600080fd5b6103cb600480803590602001909190803590602001908201803590602001908080601f0160208091040260200160405190810160405280939291908181526020018383808284378201915050505050509190803590602001908201803590602001908080601f0160208091040260200160405190810160405280939291908181526020018383808284378201915050505050509190803590602001909190803590602001908201803590602001908080601f0160208091040260200160405190810160405280939291908181526020018383808284378201915050505050509190505061070b565b604051808215151515815260200191505060405180910390f35b34156103f057600080fd5b6104066004808035906020019091905050610a07565b6040518082815260200191505060405180910390f35b341561042757600080fd5b6104466004808035906020019091908035906020019091905050610a2b565b604051808215151515815260200191505060405180910390f35b341561046b57600080fd5b6104c4600480803590602001909190803590602001908201803590602001908080601f01602080910402602001604051908101604052809392919081815260200183838082843782019150505050505091905050610b38565b604051808215151515815260200191505060405180910390f35b34156104e957600080fd5b610542600480803590602001909190803590602001908201803590602001908080601f01602080910402602001604051908101604052809392919081815260200183838082843782019150505050505091905050610cba565b604051808215151515815260200191505060405180910390f35b60016020528060005260406000206000915090508060000190806001019080600201549080600301905084565b600080600260009054906101000a900473ffffffffffffffffffffffffffffffffffffffff1673ffffffffffffffffffffffffffffffffffffffff163373ffffffffffffffffffffffffffffffffffffffff161415156105e857600080fd5b600090505b6000805490508110156106ff578360008281548110151561060a57fe5b90600052602060002090015414156106f45782600160008681526020019081526020016000206003019080519060200190610646929190610e3c565b507f576a8e0b999ae6620e511a5edef0d6efd3eb533236e0740bf96e646435d2e8d884846040518083815260200180602001828103825283818151815260200191508051906020019080838360005b838110156106b0578082015181840152602081019050610695565b50505050905090810190601f1680156106dd5780820380516001836020036101000a031916815260200191505b50935050505060405180910390a160019150610704565b8060010190506105ed565b600091505b5092915050565b600080600260009054906101000a900473ffffffffffffffffffffffffffffffffffffffff1673ffffffffffffffffffffffffffffffffffffffff163373ffffffffffffffffffffffffffffffffffffffff1614151561076a57600080fd5b600090505b6000805490508110156107ae578660008281548110151561078c57fe5b90600052602060002090015414156107a357600080fd5b80600101905061076f565b856001600089815260200190815260200160002060000190805190602001906107d8929190610e3c565b5084600160008981526020019081526020016000206001019080519060200190610803929190610e3c565b5083600160008981526020019081526020016000206002018190555082600160008981526020019081526020016000206003019080519060200190610849929190610e3c565b507fa48b6199823151c1d9ffc72a695ce1b7a125ef72eb834e8fd5b56120bbab7891878787878760405180868152602001806020018060200185815260200180602001848103845288818151815260200191508051906020019080838360005b838110156108c45780820151818401526020810190506108a9565b50505050905090810190601f1680156108f15780820380516001836020036101000a031916815260200191505b50848103835287818151815260200191508051906020019080838360005b8381101561092a57808201518184015260208101905061090f565b50505050905090810190601f1680156109575780820380516001836020036101000a031916815260200191505b50848103825285818151815260200191508051906020019080838360005b83811015610990578082015181840152602081019050610975565b50505050905090810190601f1680156109bd5780820380516001836020036101000a031916815260200191505b509850505050505050505060405180910390a1600080548060010182816109e49190610ebc565b916000526020600020900160008990919091505550600191505095945050505050565b600081815481101515610a1657fe5b90600052602060002090016000915090505481565b600080600260009054906101000a900473ffffffffffffffffffffffffffffffffffffffff1673ffffffffffffffffffffffffffffffffffffffff163373ffffffffffffffffffffffffffffffffffffffff16141515610a8a57600080fd5b600090505b600080549050811015610b2c5783600082815481101515610aac57fe5b9060005260206000209001541415610b21578260016000868152602001908152602001600020600201819055507ff1f388fc7a67e5ab8ebc9b42e81dc123ee11e2ea5414bdc7587090e8cba87aef8484604051808381526020018281526020019250505060405180910390a160019150610b31565b806001019050610a8f565b600091505b5092915050565b600080600260009054906101000a900473ffffffffffffffffffffffffffffffffffffffff1673ffffffffffffffffffffffffffffffffffffffff163373ffffffffffffffffffffffffffffffffffffffff16141515610b9757600080fd5b600090505b600080549050811015610cae5783600082815481101515610bb957fe5b9060005260206000209001541415610ca35782600160008681526020019081526020016000206000019080519060200190610bf5929190610e3c565b507f8edfa912e70e283a8ef6d6f52cd1faef9690ff989eff2f11a134e8478ba7b28b84846040518083815260200180602001828103825283818151815260200191508051906020019080838360005b83811015610c5f578082015181840152602081019050610c44565b50505050905090810190601f168015610c8c5780820380516001836020036101000a031916815260200191505b50935050505060405180910390a160019150610cb3565b806001019050610b9c565b600091505b5092915050565b600080600260009054906101000a900473ffffffffffffffffffffffffffffffffffffffff1673ffffffffffffffffffffffffffffffffffffffff163373ffffffffffffffffffffffffffffffffffffffff16141515610d1957600080fd5b600090505b600080549050811015610e305783600082815481101515610d3b57fe5b9060005260206000209001541415610e255782600160008681526020019081526020016000206001019080519060200190610d77929190610e3c565b507ff2da8d33c1b28dc862c3260e93659ab53e6453f33919b9c86c39070dee2389ca84846040518083815260200180602001828103825283818151815260200191508051906020019080838360005b83811015610de1578082015181840152602081019050610dc6565b50505050905090810190601f168015610e0e5780820380516001836020036101000a031916815260200191505b50935050505060405180910390a160019150610e35565b806001019050610d1e565b600091505b5092915050565b828054600181600116156101000203166002900490600052602060002090601f016020900481019282601f10610e7d57805160ff1916838001178555610eab565b82800160010185558215610eab579182015b82811115610eaa578251825591602001919060010190610e8f565b5b509050610eb89190610ee8565b5090565b815481835581811511610ee357818360005260206000209182019101610ee29190610ee8565b5b505050565b610f0a91905b80821115610f06576000816000905550600101610eee565b5090565b905600a165627a7a72305820e5e35e52dda36a3169a4fdc4382f3e0309130f4828125cd3129521eec46eeb050029",
  "source": "pragma solidity ^0.4.16;\r\n\r\ncontract Store {\r\n  uint[] public itemId;\r\n  mapping(uint => StoreItem) public storeItems;\r\n  address private owner;\r\n\r\n  struct StoreItem {\r\n    string name;\r\n    string description;\r\n    uint stock;\r\n    string imagePath;\r\n  }\r\n\r\n  // ------------------------ MODIFIERS ------------------------------\r\n  // Only allow owner of store to access certain files\r\n  modifier onlyOwner() {\r\n    require(msg.sender == owner);\r\n    _;\r\n  }\r\n  // ------------------------ EVENTS ---------------------------------\r\n  // Event whenever a new item is added to the the store\r\n  event ItemAdded(uint id, string name, string desc, uint stock, string imagePath);\r\n\r\n  //Event when name of item is changed\r\n  event NameChanged(uint id, string newName);\r\n\r\n  //Event when name of item is changed\r\n  event DescriptionChanged(uint id, string description);\r\n  \r\n  //Event when name of item is changed\r\n  event StockChanged(uint id, uint stock);\r\n  \r\n  //Event when name of item is changed\r\n  event ImagePathChanged(uint id, string imagePath);\r\n  \r\n  // Constructor\r\n  function Store() public {\r\n    owner = msg.sender;\r\n  }\r\n  // ------------------------ FUNCTIONS -----------------------------\r\n  // Add new item to the store - OnlyOwner can access\r\n  function addItem(uint _id, string _name, string _desc, uint _stock, string _imagePath) \r\n    public onlyOwner returns (bool success)\r\n  {\r\n    for (uint i = 0 ; i < itemId.length; ++i ) {\r\n      if (itemId[i] == _id) {\r\n        revert();\r\n      }\r\n    }\r\n    \r\n    // Set the store item to data provided\r\n    storeItems[_id].name = _name;\r\n    storeItems[_id].description = _desc;\r\n    storeItems[_id].stock = _stock;\r\n    storeItems[_id].imagePath = _imagePath;\r\n    ItemAdded(_id, _name, _desc, _stock, _imagePath);\r\n    itemId.push(_id);\r\n    return true;\r\n  }\r\n\r\n  // Change name given item id\r\n  function changeName (uint _id, string _name) public onlyOwner returns (bool success) {\r\n    for (uint i = 0 ; i < itemId.length; ++i ) {\r\n      if (itemId[i] == _id) {\r\n        storeItems[_id].name = _name;\r\n        NameChanged(_id, _name);\r\n        return true;\r\n      }\r\n    }\r\n    return false;\r\n  }\r\n  // Change description given item id\r\n  function changeDesc (uint _id, string _desc) public onlyOwner returns (bool success) {\r\n    for (uint i = 0 ; i < itemId.length; ++i ) {\r\n      if (itemId[i] == _id) {\r\n        storeItems[_id].description = _desc;\r\n        DescriptionChanged(_id, _desc);\r\n        return true;\r\n      }\r\n    }\r\n    return false;\r\n  }\r\n    // Change stock given item id\r\n  function changeName (uint _id, uint _stock) public onlyOwner returns (bool success) {\r\n    for (uint i = 0 ; i < itemId.length; ++i ) {\r\n      if (itemId[i] == _id) {\r\n        storeItems[_id].stock = _stock;\r\n        StockChanged(_id, _stock);\r\n        return true;\r\n      }\r\n    }\r\n    return false;\r\n  }\r\n  // Change image path given item id\r\n  function changeImagePath (uint _id, string _imagePath) public onlyOwner returns (bool success) {\r\n    for (uint i = 0 ; i < itemId.length; ++i ) {\r\n      if (itemId[i] == _id) {\r\n        storeItems[_id].imagePath = _imagePath;\r\n        ImagePathChanged(_id, _imagePath);\r\n        return true;\r\n      }\r\n    }\r\n    return false;\r\n  }\r\n\r\n  // Get Item\r\n  // function getItem (uint _id) public view\r\n  // returns (string name, string description, uint stock, string imagePath) \r\n  // {\r\n  //   var item = storeItems[_id];\r\n  //   return (item.name, item.description, item.stock, item.imagePath);\r\n  // }\r\n}",
  "sourcePath": "D:\\Github\\shopping-cart-react-redux\\src\\contracts\\contracts\\Store.sol",
  "compiler": {
    "name": "solc",
    "version": "0.4.19+commit.c4cbbb05.Emscripten.clang"
  },
  "schemaVersion": "1.0.1",
  "updatedAt": "2018-02-12T06:03:18.939Z"
}